:100000000C94F0000C9421010C9421010C9421011A
:100010000C9421010C9421010C9421010C942101D8
:100020000C9421010C9421010C9421010C942101C8
:100030000C9421010C948E040C9421010C94210148
:100040000C9421010C9421010C9421010C942101A8
:100050000C9421010C9421010C9421010C94440472
:100060000C9421010C940E040C94E4030C942101D3
:100070000C9421010C9421010C9421010C94210178
:100080000C9421010C9421010C9421010C94210168
:100090000C9421010C9421010C9421010C94210158
:1000A0000C9421010C9421010C9421010C94210148
:1000B0000C9421010C9421010C9421010C94210138
:1000C0000C9421010C9421010C9421010C94210128
:1000D0000C9421010C9421010C9421010C94210118
:1000E0000C9421010C94C6010C9468010C94FE013F
:1000F0000C944B020C9495010C94B8010C94A4013F
:100100000C94B70400002100240027002A002D00D1
:100110003000330001010000040107010A01000062
:1001200020002300260029002C002F0032000001AF
:10013000000003010601090100002200250028003B
:100140002B002E00310034000201000005010801DF
:100150000B0105050505070508080808020202024B
:100160000A0A080804040404010101010101010153
:100170000303030303030303040707070C0C0C0C1E
:100180000C0C0C0C02020202060606060606060607
:100190000B0B0B0B0B0B0B0B010210202008081094
:1001A00020401020408002010201080402010102E7
:1001B00004081020408080402010080402018004C0
:1001C000020180402010080402010804020101021B
:1001D0000408102040800102040810204080B70469
:1001E00011241FBECFEFD1E2DEBFCDBF00E00CBFB8
:1001F00013E0A0E0B2E0E2E5FEE000E00BBF02C0E9
:1002000007900D92AE34B107D9F724E0AEE4B3E025
:1002100001C01D92A03DB207E1F710E0C0EFD0E0B1
:1002200000E006C021970109802FFE010E941F07F0
:10023000CF3ED10780E00807A9F70E942B050C9458
:1002400027070C940000DC0170E0FB01E856FE4F2C
:10025000E4911496EC93149750E0FA01E856FE4F9F
:10026000E4911596EC9315976E5A7E4FFB0184919D
:10027000E82FF0E0EE0FFF1FE85CFE4F85919491B0
:1002800017969C938E931697FA01EE5AFE4FE491BF
:10029000F0E0EE0FFF1FE25EFE4F859194911996FC
:1002A0009C938E931897FB016491E62FF0E0EE0F7C
:1002B000FF1FEC5FFE4F859194911B969C938E934C
:1002C0001A9781EC9CE21D969C938E931C9708953F
:1002D000AF92BF92CF92DF92EF92FF920F931F9354
:1002E000CF93DF936C017B018B01040F151FEB0192
:1002F0005E01AE18BF08C017D10759F06991D60149
:10030000ED91FC910190F081E02DC6011995892BAA
:1003100079F7C501DF91CF911F910F91FF90EF9079
:10032000DF90CF90BF90AF900895FC01538D448D26
:10033000252F30E0842F90E0821B930B541710F090
:10034000CF96089501970895FC01918D828D98179D
:1003500061F0A28DAE0FBF2FB11D5D968C91928D75
:100360009F5F9F73928F90E008958FEF9FEF0895A6
:10037000FC01918D828D981731F0828DE80FF11D6F
:10038000858D90E008958FEF9FEF0895FC01918D8A
:10039000228D892F90E0805C9F4F821B91098F7383
:1003A000992708958BE593E00E94C60121E0892BEF
:1003B00009F420E0822F0895FC01A48DA80FB92F25
:1003C000B11DA35ABF4F2C91848D90E001968F737D
:1003D0009927848FA689B7892C93A089B1898C919C
:1003E000837080648C93938D848D981306C00288EB
:1003F000F389E02D80818F7D80830895EF92FF92B5
:100400000F931F93CF93DF93EC0181E0888F9B8D37
:100410008C8D98131AC0E889F989808185FF15C0F1
:100420009FB7F894EE89FF896083E889F989808114
:100430008370806480839FBF81E090E0DF91CF91E3
:100440001F910F91FF90EF900895F62E0B8D10E005
:100450000F5F1F4F0F731127E02E8C8D8E110CC074
:100460000FB607FCFACFE889F989808185FFF5CFBF
:10047000CE010E94DC01F1CFEB8DEC0FFD2FF11DC1
:10048000E35AFF4FF0829FB7F8940B8FEA89FB89FC
:1004900080818062CFCFCF93DF93EC01888D88235A
:1004A000B9F0AA89BB89E889F9898C9185FD03C0D7
:1004B000808186FD0DC00FB607FCF7CF8C9185FFBC
:1004C000F2CF808185FFEDCFCE010E94DC01E9CF24
:1004D000DF91CF91089580E090E0892B29F00E9470
:1004E000D20181110E94000080E090E0892B49F048
:1004F00080E090E0892B29F00E94000081110E9489
:10050000000080E090E0892B49F080E090E0892BAA
:1005100029F00E94000081110E94000080E090E01C
:10052000892B49F080E090E0892B29F00E9400009F
:1005300081110C94000008953FB7F89480915703FF
:1005400090915803A0915903B0915A0326B5A89BE6
:1005500005C02F3F19F00196A11DB11D3FBFBA2F55
:10056000A92F982F8827BC01CD01620F711D811D15
:10057000911D42E0660F771F881F991F4A95D1F79A
:100580000895FC0101900020E9F73197AF01481B65
:10059000590BBC018BE593E00C9468010C94C102EB
:1005A0008F929F92AF92BF92CF92DF92EF92FF9283
:1005B0000F931F93CF93DF93CDB7DEB7A1970FB6FD
:1005C000F894DEBF0FBECDBF6C01990FEE08FF0897
:1005D000F7FE47C06DE28BE593E00E94FE018C01BF
:1005E00022273327A9012C193D094E095F0919A2B9
:1005F000CE0181967C019AE0892E912CA12CB12C00
:10060000CA01B901A50194010E94FD06605DF701D0
:1006100062937F01211531054105510589F790E06D
:1006200080E0309719F0CF010E94C102080F191F16
:1006300082E192E00E94C102800F911FA1960FB645
:10064000F894DEBF0FBECDBFDF91CF911F910F9108
:10065000FF90EF90DF90CF90BF90AF909F908F90E2
:100660000895A701960119A28E010F5D1F4F8AE020
:10067000C82ED12CE12CF12CCA01B901A701960199
:100680000E94FD06605DF80162938F01211531051E
:100690004105510589F7309729F0CF010E94C10229
:1006A0008C01C6CF10E000E0C3CF0F931F93CF9310
:1006B000DF93EC01AA85BB858C919C81892B8C935F
:1006C000AE81BF819C918C81809589238C938BE036
:1006D00090E00197F1F7AE81BF818C919C81892BCD
:1006E0008C9383E290E00197F1F7AE81BF819C91FA
:1006F0008C81809589238C93AA85BB859C918C8164
:10070000809589238C93A885B9858C919D818923B7
:1007100039F090E080E0DF91CF911F910F91089523
:100720000E949C02AB01BC018C859D85B0E0A0E0DD
:100730008855994EAF4FBF4F840F951FA61FB71F07
:100740008E879F87A88BB98BE885F98580819D81ED
:10075000892361F40E949C020E851F8528893989AE
:10076000061717072807390778F7D3CF0E949C028E
:100770002C853D85620F731F811D911D6E877F87BC
:10078000888B998BE885F98580819D81892361F02B
:100790000E949C020E851F85288939890617170734
:1007A0002807390778F7B5CF0E949C022C853D8534
:1007B000A901455051092E853F85FA01E21BF30B33
:1007C000CF01860F971FA7CF1F920F920FB60F92E0
:1007D00011240BB60F922F933F934F935F936F9318
:1007E0007F938F939F93AF93BF93EF93FF938BE58B
:1007F00093E00E94DC01FF91EF91BF91AF919F9137
:100800008F917F916F915F914F913F912F910F90B9
:100810000BBE0F900FBE0F901F9018951F920F9256
:100820000FB60F9211240BB60F922F938F939F93B5
:10083000EF93FF93E0916B03F0916C038081E09163
:100840007103F091720382FD1DC090818091740349
:100850008F5F8F7320917503821741F0E0917403CD
:10086000F0E0E55AFC4F958F80937403FF91EF9170
:100870009F918F912F910F900BBE0F900FBE0F90F5
:100880001F9018958081F2CF1F920F920FB60F9292
:1008900011242F933F938F939F93AF93BF93809196
:1008A000530390915403A0915503B0915603309196
:1008B000520323E0230F2D3758F50196A11DB11DDA
:1008C000209352038093530390935403A0935503B2
:1008D000B09356038091570390915803A091590308
:1008E000B0915A030196A11DB11D809357039093B7
:1008F0005803A0935903B0935A03BF91AF919F91AE
:100900008F913F912F910F900FBE0F901F901895D0
:1009100026E8230F0296A11DB11DD2CF1F920F9280
:100920000FB60F9211240BB60F922F933F934F9354
:100930005F936F937F938F939F93AF93BF93EF9347
:10094000FF93F0E0E0E01995FF91EF91BF91AF9137
:100950009F918F917F916F915F914F913F912F91D7
:100960000F900BBE0F900FBE0F901F901895EBE5E8
:10097000F3E01382128288EE93E0A0E0B0E084837B
:100980009583A683B78384E092E09183808385EC8E
:1009900090E09587848784EC90E09787868780EC49
:1009A00090E0918B808B81EC90E0938B828B82EC3A
:1009B00090E0958B848B86EC90E0978B868B118EE4
:1009C000128E138E148E4CE26DE28EEB94E00E9438
:1009D000230146E167E18CEA94E00E94230148E1AB
:1009E00069E18AE994E00E9423014AE16BE188E829
:1009F00094E00E9423014CE16DE186E794E00E94BF
:100A000023014EE16FE184E694E00E94230140E27D
:100A100061E282E594E00E94230142E263E280E425
:100A200094E00E94230144E265E28EE294E00E9499
:100A3000230146E267E28CE194E00E94230148E250
:100A400069E28AE094E00E9423014AE26BE288EFC7
:100A500093E00C942301CF93DF93CDB7DEB72C97AF
:100A60000FB6F894DEBF0FBECDBF789484B5826018
:100A700084BD84B5816084BD85B5826085BD85B542
:100A8000816085BD80916E00816080936E001092C0
:100A9000810080918100826080938100809181003B
:100AA00081608093810080918000816080938000CC
:100AB0008091B10084608093B1008091B00081602A
:100AC0008093B0008091910082608093910080912A
:100AD000910081608093910080919000816080936B
:100AE00090008091A10082608093A1008091A1007C
:100AF00081608093A1008091A00081608093A0001C
:100B00008091210182608093210180912101816087
:100B10008093210180912001816080932001809148
:100B20007A00846080937A0080917A00826080935A
:100B30007A0080917A00816080937A0080917A00B7
:100B4000806880937A001092C100E0916B03F0916D
:100B50006C0382E08083E0916703F0916803108268
:100B6000E0916903F0916A038FEC80831092730324
:100B7000E0916F03F091700386E08083E0916D0354
:100B8000F0916E03808180618083E0916D03F0912C
:100B90006E03808188608083E0916D03F0916E0325
:100BA000808180688083E0916D03F0916E03808185
:100BB0008F7D808399E3492E512C612C712C8EEB13
:100BC00094E00E9455035C018CEA94E00E94550376
:100BD0006C018AE994E00E9455037C0188E894E066
:100BE0000E9455038C0186E794E00E9455039C8780
:100BF0008B8784E694E00E9455034C0182E594E0E3
:100C00000E9455031C0180E494E00E9455039A87DA
:100C100089878EE294E00E94550398878F838CE148
:100C200094E00E9455039E838D838AE094E00E94A5
:100C300055039C838B8388EF93E00E9455039A832E
:100C4000898385E192E00E94CE02B50190E080E0C8
:100C5000A30192010E94FD06C9010E94D0028FE209
:100C600092E00E94CE02B60190E080E0A3019201E2
:100C70000E94FD06C9010E94D00289E492E00E9410
:100C8000CE02B70190E080E0A30192010E94FD0630
:100C9000C9010E94D00283E692E00E94CE02B80110
:100CA00090E080E0A30192010E94FD06C9010E942C
:100CB000D0028DE792E00E94CE022B853C85B901DF
:100CC00090E080E0A30192010E94FD06C9010E940C
:100CD000D00287E992E00E94CE02B40190E080E069
:100CE000A30192010E94FD06C9010E94D00281EB7E
:100CF00092E00E94CE02B10190E080E0A301920157
:100D00000E94FD06C9010E94D0028BEC92E00E9475
:100D1000CE0229853A85B90190E080E0A3019201D5
:100D20000E94FD06C9010E94D00285EE92E00E9459
:100D3000CE022F813885B90190E080E0A3019201B5
:100D40000E94FD06C9010E94D0028FEF92E00E942E
:100D5000CE022D813E81B90190E080E0A301920195
:100D60000E94FD06C9010E94D00289E193E00E9421
:100D7000CE022B813C81B90190E080E0A301920179
:100D80000E94FD06C9010E94D00283E393E00E9405
:100D9000CE0229813A81B90190E080E0A30192015D
:100DA0000E94FD06C9010E94D0020E949C024B01D4
:100DB0005C0180E1C82E87E2D82EE12CF12C0E9444
:100DC0009C02681979098A099B09683E734081056C
:100DD0009105A8F331E0C31AD108E108F10888EEC3
:100DE000880E83E0981EA11CB11CC114D104E1043B
:100DF000F10429F70E946B02E2CEA1E21A2EAA1B8F
:100E0000BB1BFD010DC0AA1FBB1FEE1FFF1FA217BA
:100E1000B307E407F50720F0A21BB30BE40BF50BB7
:100E2000661F771F881F991F1A9469F76095709540
:100E3000809590959B01AC01BD01CF010895EE0F07
:100E4000FF1F881F8BBF0790F691E02D1994F8942F
:020E5000FFCFD2
:100E520000000000FE01680195014B02C601A401D9
:100E6200B8010D0A00412064697374616E6369619F
:100E720020646F2073656E736F722030313A0041C7
:100E82002064697374616E63696120646F207365A5
:100E92006E736F722030323A00412064697374615C
:100EA2006E63696120646F2073656E736F722030A8
:100EB200333A00412064697374616E63696120642E
:100EC2006F2073656E736F722030343A0041206474
:100ED200697374616E63696120646F2073656E73F8
:100EE2006F722030353A00412064697374616E6319
:100EF200696120646F2073656E736F722030363AB9
:100F020000412064697374616E63696120646F20BB
:100F120073656E736F722030373A004120646973D3
:100F220074616E63696120646F2073656E736F72A2
:100F32002030383A00412064697374616E636961DC
:100F420020646F2073656E736F722030393A0041EE
:100F52002064697374616E63696120646F207365D4
:100F62006E736F722031303A00412064697374618C
:100F72006E63696120646F2073656E736F722031D6
:100F8200313A00412064697374616E63696120645F
:0E0F92006F2073656E736F722031323A00006B
:00000001FF
