:100000000C94F0000C9421010C9421010C9421011A
:100010000C9421010C9421010C9421010C942101D8
:100020000C9421010C9421010C9421010C942101C8
:100030000C9421010C948B040C9421010C9421014B
:100040000C9421010C9421010C9421010C942101A8
:100050000C9421010C9421010C9421010C94410475
:100060000C9421010C940B040C94E1030C942101D9
:100070000C9421010C9421010C9421010C94210178
:100080000C9421010C9421010C9421010C94210168
:100090000C9421010C9421010C9421010C94210158
:1000A0000C9421010C9421010C9421010C94210148
:1000B0000C9421010C9421010C9421010C94210138
:1000C0000C9421010C9421010C9421010C94210128
:1000D0000C9421010C9421010C9421010C94210118
:1000E0000C9421010C94C6010C9468010C94FE013F
:1000F0000C944B020C9495010C94B8010C94A4013F
:100100000C94B40400002100240027002A002D00D4
:100110003000330001010000040107010A01000062
:1001200020002300260029002C002F0032000001AF
:10013000000003010601090100002200250028003B
:100140002B002E00310034000201000005010801DF
:100150000B0105050505070508080808020202024B
:100160000A0A080804040404010101010101010153
:100170000303030303030303040707070C0C0C0C1E
:100180000C0C0C0C02020202060606060606060607
:100190000B0B0B0B0B0B0B0B010210202008081094
:1001A00020401020408002010201080402010102E7
:1001B00004081020408080402010080402018004C0
:1001C000020180402010080402010804020101021B
:1001D0000408102040800102040810204080B4046C
:1001E00011241FBECFEFD1E2DEBFCDBF00E00CBFB8
:1001F00012E0A0E0B2E0E4E5FEE000E00BBF02C0E8
:1002000007900D92AA39B107D9F724E0AAE9B2E024
:1002100001C01D92AC31B207E1F710E0C0EFD0E0B1
:1002200000E006C021970109802FFE010E942007EF
:10023000CF3ED10780E00807A9F70E9428050C945B
:1002400028070C940000DC0170E0FB01E856FE4F2B
:10025000E4911496EC93149750E0FA01E856FE4F9F
:10026000E4911596EC9315976E5A7E4FFB0184919D
:10027000E82FF0E0EE0FFF1FE85CFE4F85919491B0
:1002800017969C938E931697FA01EE5AFE4FE491BF
:10029000F0E0EE0FFF1FE25EFE4F859194911996FC
:1002A0009C938E931897FB016491E62FF0E0EE0F7C
:1002B000FF1FEC5FFE4F859194911B969C938E934C
:1002C0001A978DE89FE61D969C938E931C97089530
:1002D000AF92BF92CF92DF92EF92FF920F931F9354
:1002E000CF93DF936C017B018B01040F151FEB0192
:1002F0005E01AE18BF08C017D10759F06991D60149
:10030000ED91FC910190F081E02DC6011995892BAA
:1003100079F7C501DF91CF911F910F91FF90EF9079
:10032000DF90CF90BF90AF900895FC01538D448D26
:10033000252F30E0842F90E0821B930B541710F090
:10034000CF96089501970895FC01918D828D98179D
:1003500061F0A28DAE0FBF2FB11D5D968C91928D75
:100360009F5F9F73928F90E008958FEF9FEF0895A6
:10037000FC01918D828D981731F0828DE80FF11D6F
:10038000858D90E008958FEF9FEF0895FC01918D8A
:10039000228D892F90E0805C9F4F821B91098F7383
:1003A0009927089587EA92E00E94C60121E0892BEF
:1003B00009F420E0822F0895FC01A48DA80FB92F25
:1003C000B11DA35ABF4F2C91848D90E001968F737D
:1003D0009927848FA689B7892C93A089B1898C919C
:1003E000837080648C93938D848D981306C00288EB
:1003F000F389E02D80818F7D80830895EF92FF92B5
:100400000F931F93CF93DF93EC0181E0888F9B8D37
:100410008C8D98131AC0E889F989808185FF15C0F1
:100420009FB7F894EE89FF896083E889F989808114
:100430008370806480839FBF81E090E0DF91CF91E3
:100440001F910F91FF90EF900895F62E0B8D10E005
:100450000F5F1F4F0F731127E02E8C8D8E110CC074
:100460000FB607FCFACFE889F989808185FFF5CFBF
:10047000CE010E94DC01F1CFEB8DEC0FFD2FF11DC1
:10048000E35AFF4FF0829FB7F8940B8FEA89FB89FC
:1004900080818062CFCFCF93DF93EC01888D88235A
:1004A000B9F0AA89BB89E889F9898C9185FD03C0D7
:1004B000808186FD0DC00FB607FCF7CF8C9185FFBC
:1004C000F2CF808185FFEDCFCE010E94DC01E9CF24
:1004D000DF91CF91089580E090E0892B29F00E9470
:1004E000D20181110E94000080E090E0892B49F048
:1004F00080E090E0892B29F00E94000081110E9489
:10050000000080E090E0892B49F080E090E0892BAA
:1005100029F00E94000081110E94000080E090E01C
:10052000892B49F080E090E0892B29F00E9400009F
:1005300081110C94000008953FB7F8948091A302B4
:100540009091A402A091A502B091A60226B5A89B05
:1005500005C02F3F19F00196A11DB11D3FBFBA2F55
:10056000A92F982F8827BC01CD01620F711D811D15
:10057000911D42E0660F771F881F991F4A95D1F79A
:100580000895FC0101900020E9F73197AF01481B65
:10059000590BBC0187EA92E00C9468018F929F92FC
:1005A000AF92BF920F931F93CF93DF93CDB7DEB778
:1005B000A1970FB6F894DEBF0FBECDBF19A242308F
:1005C00008F44AE08E010F5D1F4F842E912CB12C50
:1005D000A12CA50194010E94FE06E62FB901CA01D3
:1005E000EA30F4F4E05DD801EE938D01232B242B47
:1005F000252B79F790E080E0109719F0CD010E944B
:10060000C102A1960FB6F894DEBF0FBECDBFDF9139
:10061000CF911F910F91BF90AF909F908F900895B1
:10062000E95CE1CFCF93DF930E94C102EC0182E14C
:1006300092E00E94C1028C0F9D1FDF91CF9108951F
:10064000CF92DF92EF92FF92CF93DF936C01990FDD
:10065000EE08FF08F7FE1FC06DE287EA92E00E94F5
:10066000FE01EC0166277727CB016C197D098E0905
:100670009F094AE00E94CE02C80FD91F82E192E092
:100680000E94C1028C0F9D1FDF91CF91FF90EF90D0
:10069000DF90CF9008954AE0C701B6010E94CE02D4
:1006A000EC01ECCF0F931F93CF93DF93EC01AA855E
:1006B000BB858C919C81892B8C93AE81BF819C9151
:1006C0008C81809589238C938BE090E00197F1F7E2
:1006D000AE81BF818C919C81892B8C9383E290E0C9
:1006E0000197F1F7AE81BF819C918C818095892320
:1006F0008C93AA85BB859C918C81809589238C9352
:10070000A885B9858C919D81892339F090E080E09E
:10071000DF91CF911F910F9108950E949C02AB0130
:10072000BC018C859D85B0E0A0E08855994EAF4F07
:10073000BF4F840F951FA61FB71F8E879F87A88B5B
:10074000B98BE885F98580819D81892361F40E94B8
:100750009C020E851F8528893989061717072807E7
:10076000390778F7D3CF0E949C022C853D85620F14
:10077000731F811D911D6E877F87888B998BE885FC
:10078000F98580819D81892361F00E949C020E85FC
:100790001F8528893989061717072807390778F729
:1007A000B5CF0E949C022C853D85A9014550510979
:1007B0002E853F85FA01E21BF30BCF01860F971FB1
:1007C000A7CF1F920F920FB60F9211240BB60F9264
:1007D0002F933F934F935F936F937F938F939F9349
:1007E000AF93BF93EF93FF9387EA92E00E94DC01FF
:1007F000FF91EF91BF91AF919F918F917F916F91F9
:100800005F914F913F912F910F900BBE0F900FBEB4
:100810000F901F9018951F920F920FB60F921124F0
:100820000BB60F922F938F939F93EF93FF93E091CB
:10083000B702F091B8028081E091BD02F091BE0252
:1008400082FD1DC090818091C0028F5F8F732091C7
:10085000C102821741F0E091C002F0E0E955FD4F7E
:10086000958F8093C002FF91EF919F918F912F916F
:100870000F900BBE0F900FBE0F901F9018958081A8
:10088000F2CF1F920F920FB60F9211242F933F9326
:100890008F939F93AF93BF9380919F029091A002FB
:1008A000A091A102B091A20230919E0223E0230FF9
:1008B0002D3758F50196A11DB11D20939E028093FE
:1008C0009F029093A002A093A102B093A2028091F4
:1008D000A3029091A402A091A502B091A602019654
:1008E000A11DB11D8093A3029093A402A093A50221
:1008F000B093A602BF91AF919F918F913F912F919D
:100900000F900FBE0F901F90189526E8230F0296A8
:10091000A11DB11DD2CF1F920F920FB60F921124BD
:100920000BB60F922F933F934F935F936F937F93E9
:100930008F939F93AF93BF93EF93FF93F0E0E0E02B
:100940001995FF91EF91BF91AF919F918F917F91F9
:100950006F915F914F913F912F910F900BBE0F9030
:100960000FBE0F901F901895E7EAF2E013821282F3
:1009700088EE93E0A0E0B0E084839583A683B783FC
:1009800084E092E09183808385EC90E09587848772
:1009900084EC90E09787868780EC90E0918B808B49
:1009A00081EC90E0938B828B82EC90E0958B848B32
:1009B00086EC90E0978B868B118E128E138E148EA0
:1009C00044E165E18AE094E00E94230146E167E1A9
:1009D00088EF93E00E94230148E169E186EE93E00D
:1009E0000E9423014AE16BE184ED93E00E94230120
:1009F0004CE16DE182EC93E00E9423014EE16FE156
:100A000080EB93E00E94230140E261E28EE993E0F3
:100A10000E94230142E263E28CE893E00E942301FA
:100A200044E265E28AE793E00E94230146E267E23E
:100A300088E693E00E94230148E269E286E593E0BC
:100A40000E9423014AE26BE284E493E00C942301C8
:100A5000CF93DF9300D000D000D01F92CDB7DEB788
:100A6000789484B5826084BD84B5816084BD85B589
:100A7000826085BD85B5816085BD80916E00816095
:100A800080936E001092810080918100826080933B
:100A9000810080918100816080938100809180003D
:100AA0008160809380008091B10084608093B10068
:100AB0008091B00081608093B0008091910082604D
:100AC000809391008091910081608093910080914A
:100AD00090008160809390008091A100826080935B
:100AE000A1008091A10081608093A1008091A0006D
:100AF00081608093A0008091210182608093210118
:100B00008091210181608093210180912001816089
:100B10008093200180917A00846080937A00809194
:100B20007A00826080937A0080917A00816080935D
:100B30007A0080917A00806880937A001092C100D8
:100B4000E091B702F091B80282E08083E091B302B5
:100B5000F091B4021082E091B502F091B6028FECF0
:100B600080831092BF02E091BB02F091BC0286E04C
:100B70008083E091B902F091BA0280818061808324
:100B8000E091B902F091BA02808188608083E0919F
:100B9000B902F091BA02808180688083E091B90245
:100BA000F091BA0280818F7D808399E3492E512C88
:100BB000612C712C8AE094E00E94520388EF93E04C
:100BC0000E9452035C0186EE93E00E9452036C0186
:100BD00084ED93E00E9452037C0182EC93E00E943A
:100BE00052038C0180EB93E00E9452039A8789871D
:100BF0008EE993E00E9452034C018CE893E00E943E
:100C000052031C018AE793E00E94520398878F8366
:100C100088E693E00E9452039E838D8386E593E0ED
:100C20000E9452039C838B8384E493E00E945203CE
:100C30009A83898385E192E00E94120384E493E021
:100C40000E945203BC0190E080E0A30192010E9447
:100C5000FE06CA01B9014AE00E94CE0282E192E09A
:100C60000E94C10280E292E00E941203B50190E06E
:100C700080E0A30192010E94FE06C9010E942003A8
:100C80008BE292E00E941203B60190E080E0A301A3
:100C900092010E94FE06C9010E94200386E392E0B1
:100CA0000E941203B70190E080E0A30192010E942C
:100CB000FE06C9010E94200381E492E00E94120313
:100CC000B80190E080E0A30192010E94FE06C901F4
:100CD0000E9420038CE492E00E94120329853A8549
:100CE000B90190E080E0A30192010E94FE06C901D3
:100CF0000E94200387E592E00E941203B40190E075
:100D000080E0A30192010E94FE06C9010E94200317
:100D100082E692E00E941203B10190E080E0A3011C
:100D200092010E94FE06C9010E9420038DE692E016
:100D30000E9412032F813885B90190E080E0A30161
:100D400092010E94FE06C9010E94200388E792E0FA
:100D50000E9412032D813E81B90190E080E0A30141
:100D600092010E94FE06C9010E94200383E892E0DE
:100D70000E9412032B813C81B90190E080E0A30125
:100D800092010E94FE06C9010E9420038EE892E0B3
:100D90000E94120329813A81B90190E080E0A30109
:100DA00092010E94FE06C9010E9420030E949C023B
:100DB0004B015C0180E1C82E87E2D82EE12CF12C9A
:100DC0000E949C02681979098A099B09683E734050
:100DD00081059105A8F331E0C31AD108E108F108B3
:100DE00088EE880E83E0981EA11CB11CC114D104AA
:100DF000E104F10429F70E946B02DCCEA1E21A2E75
:100E0000AA1BBB1BFD010DC0AA1FBB1FEE1FFF1FAE
:100E1000A217B307E407F50720F0A21BB30BE40BFE
:100E2000F50B661F771F881F991F1A9469F7609545
:100E30007095809590959B01AC01BD01CF010895FF
:100E4000EE0FFF1F881F8BBF0790F691E02D1994BE
:040E5000F894FFCF44
:100E540000000000FE01680195014B02C601A401D7
:100E6400B8010D0A0064697374616E636530310002
:100E740064697374616E63653032006469737461AC
:100E84006E636530330064697374616E6365303416
:100E94000064697374616E636530350064697374EA
:100EA400616E636530360064697374616E636530C6
:100EB400370064697374616E636530380064697304
:100EC40074616E636530390064697374616E63655F
:100ED40031300064697374616E6365313100646933
:0A0EE4007374616E63653132000023
:00000001FF
