:020000040000FA
:100000000C9458000C9480000C9480000C94800098
:100010000C9480000C9480000C9480000C943503A8
:100020000C9480000C9480000C9480000C94800050
:100030000C9480000C9480000C9480000C94800040
:100040000C94EB020C9480000C94B9020C94930273
:100050000C9480000C9480000C9480000C94800020
:100060000C9480000C948000000000002400270005
:100070002A000000000023002600290000000000E4
:10008000250028002B0004040404040404040202D4
:100090000202020203030303030301020408102007
:1000A00040800102040810200102040810205A03B5
:1000B00011241FBECFEFD8E0DEBFCDBF11E0A0E01E
:1000C000B1E0E6E5F9E002C005900D92A231B1077A
:1000D000D9F722E0A2E1B1E001C01D92A439B20734
:1000E000E1F710E0C8E5D0E004C02197FE010E94CE
:1000F000A304C735D107C9F70E94CE030C94A90405
:100100000C940000DC0170E0FB01E656FF4FE49127
:100110001496EC93149750E0FA01E656FF4FE491E1
:100120001596EC9315976A577F4FFB018491E82F42
:10013000F0E0EE0FFF1FE458FF4F85919491179662
:100140009C938E931697FA01EA57FF4FE491F0E0E3
:10015000EE0FFF1FEE58FF4F8591949119969C93D7
:100160008E931897FB016491E62FF0E0EE0FFF1FCE
:10017000E859FF4F859194911B969C938E931A9703
:100180008DE89FE61D969C938E931C970895AF92E1
:10019000BF92CF92DF92EF92FF920F931F93CF9374
:1001A000DF936C017B018B01040F151FEB015E01D6
:1001B000AE18BF08C017D10759F06991D601ED916B
:1001C000FC910190F081E02DC6010995892B79F70A
:1001D000C501DF91CF911F910F91FF90EF90DF90BC
:1001E000CF90BF90AF900895FC01538D448D252F83
:1001F00030E0842F90E0821B930B541710F0CF96C1
:10020000089501970895FC01918D828D981761F0F2
:10021000A28DAE0FBF2FB11D5D968C91928D9F5F09
:100220009F73928F90E008958FEF9FEF0895FC01E8
:10023000918D828D981731F0828DE80FF11D858D9B
:1002400090E008958FEF9FEF0895FC01918D228D2E
:10025000892F90E0805C9F4F821B91098F739927B3
:1002600008958FE191E00E94250121E0892B09F496
:1002700020E0822F089580E090E0892B29F00E94F1
:10028000310181110C9400000895FC01A48DA80F88
:10029000B92FB11DA35ABF4F2C91848D90E00196C8
:1002A0008F739927848FA689B7892C93A089B189E8
:1002B0008C91837080648C93938D848D981306C089
:1002C0000288F389E02D80818F7D80830895EF92ED
:1002D000FF920F931F93CF93DF93EC0181E0888F00
:1002E0009B8D8C8D98131AC0E889F989808185FFD0
:1002F00015C09FB7F894EE89FF896083E889F98972
:1003000080818370806480839FBF81E090E0DF9173
:10031000CF911F910F91FF90EF900895F62E0B8DC6
:1003200010E00F5F1F4F0F731127E02E8C8D8E1181
:100330000CC00FB607FCFACFE889F989808185FFE8
:10034000F5CFCE010E944501F1CFEB8DEC0FFD2FD3
:10035000F11DE35AFF4FF0829FB7F8940B8FEA89A3
:10036000FB8980818062CFCFCF93DF93EC01888DB2
:100370008823B9F0AA89BB89E889F9898C9185FD20
:1003800003C0808186FD0DC00FB607FCF7CF8C91AE
:1003900085FFF2CF808185FFEDCFCE010E94450120
:1003A000E9CFDF91CF9108953FB7F89480911B0179
:1003B00090911C01A0911D01B0911E0126B5A89B32
:1003C00005C02F3F19F00196A11DB11D3FBFBA2FE7
:1003D000A92F982F8827BC01CD01620F711D811DA7
:1003E000911D42E0660F771F881F991F4A95D1F72C
:1003F00008950F931F93CF93DF93EC01AA85BB85DC
:100400008C919C81892B8C93AE81BF819C918C8136
:10041000809589238C938BE090E00197F1F7AE8172
:10042000BF818C919C81892B8C9383E290E0019712
:10043000F1F7AE81BF819C918C81809589238C934B
:10044000AA85BB859C918C81809589238C93A885F6
:10045000B9858C919D81892391F090E080E0BC0169
:1004600090E080E029E330E040E050E00E94810429
:10047000CA01B901DF91CF911F910F9108950E9498
:10048000D401AB01BC018C859D85B0E0A0E088550E
:10049000994EAF4FBF4F840F951FA61FB71F8E8772
:1004A0009F87A88BB98BE885F98580819D818923F9
:1004B00061F40E94D4010E851F85288939890617A9
:1004C00017072807390778F7C8CF0E94D4012C8571
:1004D0003D85620F731F811D911D6E877F87888BFD
:1004E000998BE885F98580819D81892361F00E943F
:1004F000D4010E851F852889398906171707280713
:10050000390778F7AACF0E94D4012C853D85A9012F
:10051000455051092E853F85FA01E21BF30BCF01AF
:10052000860F971F9CCF1F920F920FB60F92112428
:100530002F933F934F935F936F937F938F939F93EB
:10054000AF93BF93EF93FF938FE191E00E9445013A
:10055000FF91EF91BF91AF919F918F917F916F919B
:100560005F914F913F912F910F900FBE0F901F9071
:1005700018951F920F920FB60F9211242F938F93FD
:100580009F93EF93FF93E0912F01F09130018081D1
:10059000E0913501F091360182FD1BC09081809180
:1005A00038018F5F8F7320913901821741F0E091FC
:1005B0003801F0E0E15EFE4F958F80933801FF91A6
:1005C000EF919F918F912F910F900FBE0F901F90E1
:1005D00018958081F4CF1F920F920FB60F921124BD
:1005E0002F933F938F939F93AF93BF938091170166
:1005F00090911801A0911901B0911A013091160142
:1006000023E0230F2D3758F50196A11DB11D20932E
:1006100016018093170190931801A0931901B093CC
:100620001A0180911B0190911C01A0911D01B091B4
:100630001E010196A11DB11D80931B0190931C0109
:10064000A0931D01B0931E01BF91AF919F918F9117
:100650003F912F910F900FBE0F901F90189526E895
:10066000230F0296A11DB11DD2CF1F920F920FB67C
:100670000F9211242F933F934F935F936F937F9328
:100680008F939F93AF93BF93EF93FF93F0E0E0E0DE
:100690000995FF91EF91BF91AF919F918F917F91BC
:1006A0006F915F914F913F912F910F900FBE0F90DF
:1006B0001F901895EFE1F1E01382128288EE93E02B
:1006C000A0E0B0E084839583A683B78384E091E0C3
:1006D0009183808385EC90E09587848784EC90E01B
:1006E0009787868780EC90E0918B808B81EC90E0FF
:1006F000938B828B82EC90E0958B848B86EC90E0E0
:10070000978B868B118E128E138E148E44E165E1C9
:1007100082E892E00E94820046E167E180E792E091
:100720000E94820048E169E18EE592E00E94820029
:100730004AE16BE18CE492E00E9482004CE16DE1C1
:100740008AE392E00E9482004EE16FE188E292E04B
:100750000E94820040E261E286E192E00E94820013
:1007600042E263E284E092E00E94820044E265E2B9
:1007700082EF91E00E94820046E267E280EE91E023
:100780000E94820048E269E28EEC91E00E948200C1
:100790004AE26BE28CEB91E00C948200789484B591
:1007A000826084BD84B5816084BD85B5826085BD6D
:1007B00085B5816085BD80916E00816080936E00FB
:1007C00010928100809181008260809381008091ED
:1007D000810081608093810080918000816080939E
:1007E00080008091B10084608093B1008091B0005E
:1007F00081608093B00080917A00846080937A0059
:1008000080917A00826080937A0080917A00816082
:1008100080937A0080917A00806880937A001092A9
:10082000C100E0912F01F091300182E08083E091DE
:100830002B01F0912C011082E0912D01F0912E01FD
:100840008FEC808310923701E0913301F0913401F5
:1008500086E08083E0913101F091320180818061F6
:100860008083E0913101F091320180818860808342
:10087000E0913101F0913201808180688083E091C4
:100880003101F091320180818F7D8083C0E0D0E022
:1008900082E892E00E94F90180E792E00E94F9016B
:1008A0008EE592E00E94F9018CE492E00E94F90149
:1008B0008AE392E00E94F90188E292E00E94F90145
:1008C00086E192E00E94F90184E092E00E94F90141
:1008D00082EF91E00E94F90180EE91E00E94F9011F
:1008E0008EEC91E00E94F9018CEB91E00E94F901FD
:1008F000209771F20E943101882351F20E9400007A
:10090000C7CFA1E21A2EAA1BBB1BFD010DC0AA1F57
:10091000BB1FEE1FFF1FA217B307E407F50720F068
:10092000A21BB30BE40BF50B661F771F881F991FE3
:100930001A9469F760957095809590959B01AC012C
:10094000BD01CF010895EE0FFF1F0590F491E02D3A
:100950000994F894FFCF000000006701C700F4007D
:08096000B40125010301170198
:107E0000112484B714BE81FFF0D085E080938100F7
:107E100082E08093C00088E18093C10086E0809377
:107E2000C20080E18093C4008EE0C9D0259A86E02C
:107E300020E33CEF91E0309385002093840096BBD3
:107E4000B09BFECF1D9AA8958150A9F7CC24DD24C4
:107E500088248394B5E0AB2EA1E19A2EF3E0BF2EE7
:107E6000A2D0813461F49FD0082FAFD0023811F036
:107E7000013811F484E001C083E08DD089C08234E0
:107E800011F484E103C0853419F485E0A6D080C0E4
:107E9000853579F488D0E82EFF2485D0082F10E0AE
:107EA000102F00270E291F29000F111F8ED06801E7
:107EB0006FC0863521F484E090D080E0DECF843638
:107EC00009F040C070D06FD0082F6DD080E0C81688
:107ED00080E7D80618F4F601B7BEE895C0E0D1E017
:107EE00062D089930C17E1F7F0E0CF16F0E7DF06D8
:107EF00018F0F601B7BEE89568D007B600FCFDCFD4
:107F0000A601A0E0B1E02C9130E011968C91119780
:107F100090E0982F8827822B932B1296FA010C0160
:107F200087BEE89511244E5F5F4FF1E0A038BF0790
:107F300051F7F601A7BEE89507B600FCFDCF97BE46
:107F4000E89526C08437B1F42ED02DD0F82E2BD052
:107F50003CD0F601EF2C8F010F5F1F4F84911BD097
:107F6000EA94F801C1F70894C11CD11CFA94CF0C13
:107F7000D11C0EC0853739F428D08EE10CD085E9AC
:107F80000AD08FE07ACF813511F488E018D01DD067
:107F900080E101D065CF982F8091C00085FFFCCF94
:107FA0009093C60008958091C00087FFFCCF809118
:107FB000C00084FD01C0A8958091C6000895E0E648
:107FC000F0E098E1908380830895EDDF803219F02E
:107FD00088E0F5DFFFCF84E1DECF1F93182FE3DFCA
:107FE0001150E9F7F2DF1F91089580E0E8DFEE27F6
:047FF000FF270994CA
:027FFE00040479
:00000001FF
